:060000000A128A110E280D
:10000800FE00030EF8000408F9000A08FA000A12B4
:100018008A11342F0A128A111128FB018312031343
:10002800D701D801D901DA01DB01DC01DD01DE01EC
:10003800DF0183010A128A11CC2C831203133108C1
:100048008039B6003608BB003108B6003607B7005D
:100058003708C100B01F312832283328411441081D
:100068000319372838284728410A031D3C283D280A
:1000780045280030B1000030B0000030AF0000303B
:10008800AE00B0174F280030B1000030B00000308B
:10009800AF000030AE0035088039B6003608BB0620
:1000A8003508B6003607B7003708C000B41F5D280A
:1000B8005E285F28401440080319632864287328C1
:1000C800400A031D6828692871280030B5000030EF
:1000D800B4000030B3000030B200B4177B28003001
:1000E800B5000030B4000030B3000030B200400862
:1000F80003197F28802885284108031D842885281E
:100108008E280030B1000030B0000030AF00003061
:10011800AE00812B2E08B6003608A00034080A125B
:100128008A1178270A128A11831203132108C7003B
:100138002008C6004608B600B701B801B901390859
:10014800BF003808BE003708BD003608BC004708A5
:10015800B600B701B801B9013908C5003808C400AC
:100168003708C3003608C2002F08B6003608A000BA
:1001780033080A128A1178270A128A118312031384
:100188002108C7002008C6004608B600B701B80114
:10019800B9013608BC07370803110318013E0319D3
:1001A800D628BD07380803110318013E0319DD28B6
:1001B800BE07390803110318013E0319E428BF07D5
:1001C8004708B600B701B801B9013608C2073708B1
:1001D80003110318013E0319F228C3073808031155
:1001E8000318013E0319F928C40739080311031835
:1001F800013E03190029C5073008B6003608A000DB
:1002080032080A128A1178270A128A1183120313F4
:100218002108C7002008C6004608B600B701B80183
:10022800B9013608BC07370803110318013E031942
:100238001E29BD07380803110318013E0319252993
:10024800BE07390803110318013E03192C29BF07FB
:100258004708B600B701B801B9013608C207370820
:1002680003110318013E03193A29C307380803117B
:100278000318013E03194129C4073908031103185B
:10028800013E03194829C5070830B6000310BC0D04
:10029800BD0DBE0DBF0DB60B4A292F08B600360896
:1002A800A00032080A128A1178270A128A118312CA
:1002B80003132108C7002008C6004608B6004708EF
:1002C800B700B801B9013608BC073708031103188D
:1002D800013E03197029BD07380803110318013EB0
:1002E80003197729BE07390803110318013E0319BA
:1002F8007E29BF072E08B6003608A00033080A1268
:100308008A1178270A128A11831203132108C70059
:100318002008C6004608B6004708B700B801B9016A
:100328003608BC07370803110318013E03199D2935
:10033800BD07380803110318013E0319A429BE0795
:10034800390803110318013E0319AB29BF07083008
:10035800B6000310BC0DBD0DBE0DBF0DB60BAD290B
:100368002E08B6003608A00032080A128A1178272B
:100378000A128A11831203132108C7002008C60035
:100388004608B6004708B700B801B9013608BC07E7
:10039800370803110318013E0319D329BD0738088C
:1003A80003110318013E0319DA29BE07390803119E
:1003B8000318013E0319E129BF072F08B6003608C4
:1003C800A00034080A128A1178270A128A118312A7
:1003D80003132108C7002008C6004608B6004708CE
:1003E800B700B801B9013608C20737080311031866
:1003F800013E0319002AC307380803110318013EF8
:100408000319072AC407390803110318013E031901
:100418000E2AC5073008B6003608A00033080A12AD
:100428008A1178270A128A11831203132108C70038
:100438002008C6004608B6004708B700B801B90149
:100448003608C207370803110318013E03192D2A7D
:10045800C307380803110318013E0319342AC407D7
:10046800390803110318013E03193B2AC507300850
:10047800B6003608A00034080A128A1178270A1232
:100488008A11831203132108C7002008C6004608F2
:10049800B6004708B700B801B90108300310B60D17
:1004A800B70DB80DB90DFF3E031D522A3608C20715
:1004B800370803110318013E0319632AC3073808D4
:1004C80003110318013E03196A2AC40739080311E6
:1004D8000318013E0319712AC5073C08B6003D08F8
:1004E800B7003E08B8003F08B90018300310B90C2F
:1004F800B80CB70CB60CFF3E031D7A2A3608C207A3
:10050800370803110318013E03198B2AC30738085B
:1005180003110318013E0319922AC407390803116D
:100528000318013E0319992AC5070830B6000310BD
:10053800BC0DBD0DBE0DBF0DB60B9B2A4108400773
:10054800B600B701B70D3608823EC6003708031853
:10055800013EFF3EC700CD2A0130B6000310C20D90
:10056800C30DC40DC50DB60BB22ABF1FBC2ABD2AC8
:10057800BE2A42140130B6000310BC0DBD0DBE0DDD
:10058800BF0DB60BC02AFF30C6070318C70AFF30D5
:10059800C707C41FD02AD12AB02AC001BF1FD52A35
:1005A800D62AF22AFF303C05B600FF303D05B700D9
:1005B800FF303E05B8007F303F05B90039083804E0
:1005C800370436040319E92AEA2AED2AC001C00AC9
:1005D800F22A421CF02AF12AF22AEA2A40080319D0
:1005E800F62AF72A282B0130C207003003180130F9
:1005F800C307003003180130C40700300318013066
:10060800C507451C082B092B282B4208B6004308B0
:10061800B7004408B8004508B9000130BA00390DE0
:10062800B90CB80CB70CB60CBA0B132B3908C500AB
:100638003808C4003708C3003608C2000130C607AE
:100648000318C70A0030C7074708803AFF00803000
:100658007F02031D312BFF304602031C342B352B40
:10066800402B7F3083120313C5008030C400003054
:10067800C3000030C200752B831203134708803A69
:10068800FF0080307F02031D4B2B01304602031808
:100698004E2B4F2B5B2B003083120313C500003009
:1006A800C4000030C3000030C200BB01752B8312A8
:1006B80003134608B6003608C100FF30C205FF30F4
:1006C800C3057F30C4050030C505411C6C2B6D2B5C
:1006D8006E2BC4174108B6000310360CB700370854
:1006E800C5003B08B6003608C5044508B1004408F3
:1006F800B0004308AF004208AE000800831203139D
:10070800A80028080319892B8A2B9E2BA31F8D2B41
:100718008E2B9E2B2009AA002109AB002209AC00D0
:100728002309AD00AA0A0319AB0A0319AC0A031975
:10073800AD0AA62B2308AD002208AC002108AB00A7
:100748002008AA002308220421042004031DAD2B3D
:10075800AE2BB72B0030A3000030A2000030A10060
:100768000030A0003D2C9630A4002408A900C92B15
:100778000130A4002408A90701300310AD0CAC0C0B
:10078800AB0CAA0CFF3E031DC12BFE302D05031D2B
:10079800CE2BCF2BBC2BEB2B0130A4002408A907B0
:1007A8000130AA07003003180130AB0700300318E6
:1007B8000130AC07003003180130AD0701300310D9
:1007C800AD0CAC0CAB0CAA0CFF3E031DE32BFF30A9
:1007D8002D05031DF02BF12BD02BFD2B0130A90289
:1007E8000130A4000310AA0DAB0DAC0DAD0DA40B88
:1007F800F62BAC1B002C012C072C02302902031805
:10080800062C072CF22B29180A2C0B2C132CFF3042
:10081800AA05FF30AB057F30AC05FF30AD050310EE
:10082800A90C2908A400A501A601A70118300310E6
:10083800A40DA50DA60DA70DFF3E031D1B2C240816
:10084800AA042508AB042608AC042708AD04280828
:1008580003192F2C302C352CA31F332C342C352C7A
:10086800AD172D08A3002C08A2002B08A1002A0808
:10087800A0000800643083120313A6000030A7000C
:100888003008A9002F08A8000A128A11C6250A12E2
:100898008A11831203133108023E84002608831349
:1008A8008000840A270880000A30A6000030A700CC
:1008B8003108023E84000008A000840A0008A10054
:1008C8009C30A200FF30A3000A128A11A1270A1245
:1008D8008A11831203132F082007A8003008031871
:1008E800300A2107A9000A128A11C6250A128A119C
:1008F800831203133108043E840026088313800002
:10090800840A270880003108023E84000008A000FD
:10091800840A0008A1009C30A200FF30A3000A123C
:100928008A11A1270A128A11831203132008B20020
:100938002108B3003108043E840083130008A00096
:10094800840A0008A100F630A200FF30A3000A12B2
:100958008A11A1270A128A11831203132008320769
:10096800B40021080318210A3307B5002F083407FB
:10097800B60030080318300A3507B7003108063EBC
:100988008400360883138000840A37088000080032
:100998000A128A118A260A128A11831203139F18CF
:1009A800D62CD72CFA2C1F0CD300530C0F39003A35
:1009B800031DDF2CE02CE52C1F08C33904389F00E9
:1009C800F02C1F0CD300530C0F39013A031DED2CEA
:1009D800EE2CF02CC3309F05023083120313D30092
:1009E800D30BF42C0000831203139F145908D3006F
:1009F800D401D501D6015608A3005508A200540811
:100A0800A1005308A00001300A128A1182230A1299
:100A18008A11831203132308B5002208B4002108A1
:100A2800B3002008B2003F30B100FA30B000E13026
:100A3800AF004830AE000A128A1121200A128A112A
:100A4800831203133108CB003008CA002F08C900ED
:100A58002E08C8000A128A114A250A128A1183121E
:100A680003134908D8004808D7005808B0005708A9
:100A7800AF005A30D3005308B1000A128A113E243D
:100A88000A128A11D12C0A128A110E280310831215
:100A980003134A0D4B0DCC004C08D2005208031D1D
:100AA800562D572D602D0030CB000030CA00003085
:100AB800C9000030C800C52D4808CC004908CD0041
:100AC8004A08CE004B08CF001F300310CF0CCE0CC5
:100AD800CD0CCC0CFF3E031D692D4C08D0005008EE
:100AE800D100CA17FF30C805FF30C905FF30CA0555
:100AF8000030CB059630D202D21F832D842D9E2D37
:100B08005208803A973E03188A2D8B2D8C2D572D2D
:100B180001300310CB0CCA0CC90CC80CFF3E031DD6
:100B28008D2D0130CC004C08D207031D9C2D9D2D26
:100B38008C2DB52D20305202031CA32DA42DB02DD1
:100B4800572D0130CC000310C80DC90DCA0DCB0DAF
:100B5800CC0BA72D0130D2025208031DB42DB52DA0
:100B6800A52D51080319B92DBA2DC52DC809C909D4
:100B7800CA09CB09C80A0319C90A0319CA0A0319F9
:100B8800CB0A080083120313AC01A71FCC2DCD2D6F
:100B9800D42DA609A709A60A0319A70AAC01AC0A0D
:100BA800A91FD72DD82DE12DA809A909A80A03192D
:100BB800A90A0130AA002A08AC06AD01AE01260830
:100BC80027040319E82DE92D202EAB01AB0AF72DD8
:100BD80001300310A60DA70DFF3E031DED2D0130BA
:100BE800AA002A08AB07A71FFA2DFB2DEC2D013010
:100BF8000310AD0DAE0DFF3E031DFC2D2708290285
:100C0800031D082E26082802031C0B2E0C2E132E5B
:100C18002608A8022708031CA903A9022D140130DD
:100C28000310A70CA60CFF3E031D142E0130AB02C7
:100C3800031D1F2E202EFB2D2C080319242E252ED4
:100C48002A2EAD09AE09AD0A0319AE0A2E08A7006F
:100C58002D08A6000800F301632EBF30F2007208C9
:100C6800F300882E8630F2007208F300882EDB30FD
:100C7800F2007208F300882ECF30F2007208F300F9
:100C8800882EE630F2007208F300882EED30F2006C
:100C98007208F300882EFD30F2007208F300882EE7
:100CA8008730F2007208F300882EFF30F2007208D5
:100CB800F300882EEF30F2007208F300882E7108D6
:100CC800003A0319682E882E7008003A0319312E4D
:100CD800013A0319362E033A03193B2E013A031938
:100CE800402E073A0319452E013A03194A2E033AB2
:100CF80003194F2E013A0319542E0F3A0319592E8E
:100D0800013A03195E2E882E7308080003308316F3
:100D180003178800890103308316031385008312A3
:100D280003138501831603138701831203138701B5
:100D38008316031388018312031388018316031390
:100D48008601831203138601831603130F088F3954
:100D580040388F000F148112811101158114011080
:100D6800FC308312031381001F083F3940389F006D
:100D7800831603131F129F12C330831203139F0598
:100D88001F08C33904389F00831603139F13831267
:100D980003131F14023083120313A000A00BD22EDA
:100DA8000000831203130C13831603130C170B177D
:100DB8008B178B160B110800F6008312031388019A
:100DC8008701202F08157608023E84008313000847
:100DD800F000840A0008F1000A128A112F260A126C
:100DE8008A11803E831203138700332F88147608F4
:100DF800043E840083130008F000840A0008F10010
:100E08000A128A112F260A128A11831203138700E5
:100E1800332F08147608063E840083130008F00078
:100E2800840A0008F1000A128A112F260A128A1170
:100E3800831203138700332F7B08F400F50175082C
:100E4800003A0319282F332F7408003A0319E62EA5
:100E5800013A0319FA2E033A03190D2F332F08000C
:100E6800831203130C1F392F3A2F552F1F0CF7002D
:100E7800770C0F39003A031D422F432F462F1E08C7
:100E88008600532F1F0CF700770C0F39013A031D0A
:100E98004E2F4F2F532F1E08F7007708D9000C1339
:100EA8006F2F0B1D582F592F6F2F5A300A128A1186
:100EB800E0260A128A110130F7007708FB07033091
:100EC8007B02031C682F692F6A2FFB010B11FC3072
:100ED8008312031381007A088A0079088400780E47
:100EE8008300FE0E7E0E090083120313A800A401DE
:100EF800A5012008A200A3012208A6002308A70034
:100F0800281C872F882F8E2F2608A4070318A50AC8
:100F18002708A50701300310A60DA70DFF3E031DE6
:100F28008F2F0310A80C2808031D9B2F9C2F842F9C
:100F38002508A1002408A000080083120313A401B7
:100F4800A501201CA82FA92FAF2F2208A40703183A
:100F5800A50A2308A50701300310A20DA30DFF3E23
:100F6800031DB02F01300310A10CA00CFF3E031D80
:100F7800B72F20082104031DC22FC32FA52F250832
:080F8800A1002408A0000800EC
:08400000FF3FFF3FFF3FFF3FC0
:04400E00D420FF3F7C
:00000001FF
